{
  "contractName": "Num",
  "abi": [
    {
      "inputs": [],
      "stateMutability": "nonpayable",
      "type": "constructor"
    },
    {
      "anonymous": false,
      "inputs": [
        {
          "indexed": false,
          "internalType": "uint256",
          "name": "newValue",
          "type": "uint256"
        }
      ],
      "name": "NumberIncreased",
      "type": "event"
    },
    {
      "inputs": [],
      "name": "number",
      "outputs": [
        {
          "internalType": "uint256",
          "name": "",
          "type": "uint256"
        }
      ],
      "stateMutability": "view",
      "type": "function",
      "constant": true
    },
    {
      "inputs": [],
      "name": "increase",
      "outputs": [],
      "stateMutability": "nonpayable",
      "type": "function"
    },
    {
      "inputs": [],
      "name": "decrease",
      "outputs": [],
      "stateMutability": "nonpayable",
      "type": "function"
    },
    {
      "inputs": [],
      "name": "getNum",
      "outputs": [
        {
          "internalType": "uint256",
          "name": "",
          "type": "uint256"
        }
      ],
      "stateMutability": "view",
      "type": "function",
      "constant": true
    }
  ],
  "bytecode": "0x60806040526000805534801561001457600080fd5b5060008055610110806100286000396000f3fe6080604052348015600f57600080fd5b506004361060465760003560e01c806367e0badb14604b5780638381f58a146061578063d732d955146069578063e8927fbc146071575b600080fd5b6000545b60405190815260200160405180910390f35b604f60005481565b606f6077565b005b606f608e565b60016000808282546087919060b4565b9091555050565b60016000808282546087919060ca565b634e487b7160e01b600052601160045260246000fd5b8181038181111560c45760c4609e565b92915050565b8082018082111560c45760c4609e56fea264697066735822122094e9132564954ca0bc472d43f7f3f47c034dd10577fd5c9a9e7dc0bc5e2b59bd64736f6c63430008130033",
  "immutableReferences": {},
  "source": "// SPDX-License-Identifier: GPL-3.0\r\n\r\npragma solidity >=0.8.2 <0.9.0;\r\n\r\ncontract Num {\r\n\r\n    uint public number = 0;\r\n\r\n    constructor(){\r\n        number = 0;\r\n    }\r\n\r\n    event NumberIncreased(uint newValue);\r\n\r\n    function increase() public {\r\n        number += 1;\r\n    }\r\n\r\n    function decrease() public {\r\n        number -= 1;\r\n    }\r\n\r\n    function getNum() public view returns (uint){\r\n        return number;\r\n    }\r\n}",
  "sourcePath": "E:\\code\\web3\\test2\\truffle\\contracts\\Num.sol",
  "compiler": {
    "name": "solc",
    "version": "0.8.19+commit.7dd6d404.Emscripten.clang"
  },
  "schemaVersion": "3.4.15",
  "updatedAt": "2023-08-31T01:51:37.051Z",
  "networkType": "ethereum",
  "devdoc": {
    "kind": "dev",
    "methods": {},
    "version": 1
  },
  "userdoc": {
    "kind": "user",
    "methods": {},
    "version": 1
  }
}